{
  "contractName": "Auction",
  "abi": [
    {
      "inputs": [
        {
          "internalType": "uint256",
          "name": "_biddingTime",
          "type": "uint256"
        },
        {
          "internalType": "address payable",
          "name": "_beneficiary",
          "type": "address"
        }
      ],
      "payable": false,
      "stateMutability": "nonpayable",
      "type": "constructor"
    },
    {
      "anonymous": false,
      "inputs": [
        {
          "indexed": false,
          "internalType": "address",
          "name": "winner",
          "type": "address"
        },
        {
          "indexed": false,
          "internalType": "uint256",
          "name": "amount",
          "type": "uint256"
        }
      ],
      "name": "AuctionEnded",
      "type": "event"
    },
    {
      "anonymous": false,
      "inputs": [
        {
          "indexed": false,
          "internalType": "address",
          "name": "bidder",
          "type": "address"
        },
        {
          "indexed": false,
          "internalType": "uint256",
          "name": "amount",
          "type": "uint256"
        }
      ],
      "name": "HighestBidIncreased",
      "type": "event"
    },
    {
      "constant": true,
      "inputs": [],
      "name": "auctionEndTime",
      "outputs": [
        {
          "internalType": "uint256",
          "name": "",
          "type": "uint256"
        }
      ],
      "payable": false,
      "stateMutability": "view",
      "type": "function"
    },
    {
      "constant": true,
      "inputs": [],
      "name": "beneficiary",
      "outputs": [
        {
          "internalType": "address payable",
          "name": "",
          "type": "address"
        }
      ],
      "payable": false,
      "stateMutability": "view",
      "type": "function"
    },
    {
      "constant": true,
      "inputs": [],
      "name": "biddingTime",
      "outputs": [
        {
          "internalType": "uint256",
          "name": "",
          "type": "uint256"
        }
      ],
      "payable": false,
      "stateMutability": "view",
      "type": "function"
    },
    {
      "constant": true,
      "inputs": [],
      "name": "highestBid",
      "outputs": [
        {
          "internalType": "uint256",
          "name": "",
          "type": "uint256"
        }
      ],
      "payable": false,
      "stateMutability": "view",
      "type": "function"
    },
    {
      "constant": true,
      "inputs": [],
      "name": "highestBidder",
      "outputs": [
        {
          "internalType": "address",
          "name": "",
          "type": "address"
        }
      ],
      "payable": false,
      "stateMutability": "view",
      "type": "function"
    },
    {
      "constant": false,
      "inputs": [],
      "name": "bid",
      "outputs": [],
      "payable": true,
      "stateMutability": "payable",
      "type": "function"
    },
    {
      "constant": false,
      "inputs": [],
      "name": "withdraw",
      "outputs": [
        {
          "internalType": "bool",
          "name": "",
          "type": "bool"
        }
      ],
      "payable": false,
      "stateMutability": "nonpayable",
      "type": "function"
    },
    {
      "constant": false,
      "inputs": [],
      "name": "auctionEnd",
      "outputs": [],
      "payable": false,
      "stateMutability": "nonpayable",
      "type": "function"
    }
  ],
  "bytecode": "0x608060405234801561001057600080fd5b5060405161092a38038061092a8339818101604052604081101561003357600080fd5b810190808051906020019092919080519060200190929190505050806000806101000a81548173ffffffffffffffffffffffffffffffffffffffff021916908373ffffffffffffffffffffffffffffffffffffffff1602179055508161009d6100b260201b60201c565b016001819055508160028190555050506100ba565b600042905090565b610861806100c96000396000f3fe60806040526004361061007b5760003560e01c80634b449cba1161004e5780634b449cba1461012757806391f9015714610152578063d074a38d146101a9578063d57bde79146101d45761007b565b80631998aeef146100805780632a24f46c1461008a57806338af3eed146100a15780633ccfd60b146100f8575b600080fd5b6100886101ff565b005b34801561009657600080fd5b5061009f610484565b005b3480156100ad57600080fd5b506100b661067f565b604051808273ffffffffffffffffffffffffffffffffffffffff1673ffffffffffffffffffffffffffffffffffffffff16815260200191505060405180910390f35b34801561010457600080fd5b5061010d6106a4565b604051808215151515815260200191505060405180910390f35b34801561013357600080fd5b5061013c6107c8565b6040518082815260200191505060405180910390f35b34801561015e57600080fd5b506101676107ce565b604051808273ffffffffffffffffffffffffffffffffffffffff1673ffffffffffffffffffffffffffffffffffffffff16815260200191505060405180910390f35b3480156101b557600080fd5b506101be6107f4565b6040518082815260200191505060405180910390f35b3480156101e057600080fd5b506101e96107fa565b6040518082815260200191505060405180910390f35b60015461020a610800565b111561027e576040517f08c379a00000000000000000000000000000000000000000000000000000000081526004018080602001828103825260108152602001807f54696d652068617320656c61707365640000000000000000000000000000000081525060200191505060405180910390fd5b60045434116102f5576040517f08c379a000000000000000000000000000000000000000000000000000000000815260040180806020018281038252600e8152602001807f42696420697320746f6f206c6f7700000000000000000000000000000000000081525060200191505060405180910390fd5b600073ffffffffffffffffffffffffffffffffffffffff16600360009054906101000a900473ffffffffffffffffffffffffffffffffffffffff1673ffffffffffffffffffffffffffffffffffffffff16146103bd5760045460056000600360009054906101000a900473ffffffffffffffffffffffffffffffffffffffff1673ffffffffffffffffffffffffffffffffffffffff1673ffffffffffffffffffffffffffffffffffffffff168152602001908152602001600020600082825401925050819055505b60025460016000828254019250508190555033600360006101000a81548173ffffffffffffffffffffffffffffffffffffffff021916908373ffffffffffffffffffffffffffffffffffffffff160217905550346004819055507ff4757a49b326036464bec6fe419a4ae38c8a02ce3e68bf0809674f6aab8ad3003334604051808373ffffffffffffffffffffffffffffffffffffffff1673ffffffffffffffffffffffffffffffffffffffff1681526020018281526020019250505060405180910390a1565b60015461048f610800565b1015610503576040517f08c379a000000000000000000000000000000000000000000000000000000000815260040180806020018281038252601c8152602001807f41756374696f6e206973207374696c6c20696e2070726f67726573730000000081525060200191505060405180910390fd5b600660009054906101000a900460ff1615610569576040517f08c379a00000000000000000000000000000000000000000000000000000000081526004018080602001828103825260248152602001806108096024913960400191505060405180910390fd5b6001600660006101000a81548160ff0219169083151502179055507fdaec4582d5d9595688c8c98545fdd1c696d41c6aeaeb636737e84ed2f5c00eda600360009054906101000a900473ffffffffffffffffffffffffffffffffffffffff16600454604051808373ffffffffffffffffffffffffffffffffffffffff1673ffffffffffffffffffffffffffffffffffffffff1681526020018281526020019250505060405180910390a16000809054906101000a900473ffffffffffffffffffffffffffffffffffffffff1673ffffffffffffffffffffffffffffffffffffffff166108fc6004549081150290604051600060405180830381858888f1935050505015801561067c573d6000803e3d6000fd5b50565b6000809054906101000a900473ffffffffffffffffffffffffffffffffffffffff1681565b600080600560003373ffffffffffffffffffffffffffffffffffffffff1673ffffffffffffffffffffffffffffffffffffffff16815260200190815260200160002054905060008111156107bf576000600560003373ffffffffffffffffffffffffffffffffffffffff1673ffffffffffffffffffffffffffffffffffffffff168152602001908152602001600020819055503373ffffffffffffffffffffffffffffffffffffffff166108fc829081150290604051600060405180830381858888f193505050506107be5780600560003373ffffffffffffffffffffffffffffffffffffffff1673ffffffffffffffffffffffffffffffffffffffff1681526020019081526020016000208190555060009150506107c5565b5b60019150505b90565b60015481565b600360009054906101000a900473ffffffffffffffffffffffffffffffffffffffff1681565b60025481565b60045481565b60004290509056fe61756374696f6e20456e642068617320616c7265616479206265696e672063616c6c6564a265627a7a723158203d30402e1876bd9e0766e40884dce8976da9e41bfffcac64c514ac3edee94cb064736f6c63430005100032",
  "source": "pragma solidity ^0.5.0;\n\ncontract Auction {\n  // Parameters of the auction. Times are either\n  // absolute unix timestamps (seconds since 1970-01-01)\n  // or time periods in seconds.\n  address payable public beneficiary;\n  uint public auctionEndTime;\n  uint public biddingTime;\n  // Current state of the auction.\n  address public highestBidder;\n  uint public highestBid;\n\n  // Allowed withdrawals of previous bids\n  mapping(address => uint) pendingReturns;\n  // Set to true at the end, disallows any change\n  bool ended;\n\n  // Events that will be fired on changes.\n  event HighestBidIncreased(address bidder, uint amount);\n  event AuctionEnded(address winner, uint amount);\n\n  // The following is a so-called natspec comment,\n  // recognizable by the three slashes.\n  // It will be shown when the user is asked to\n  // confirm a transaction.\n\n  /// Create a simple auction with `_biddingTime`\n  /// seconds bidding time on behalf of the\n  constructor(uint _biddingTime, address payable _beneficiary) public {\n    beneficiary = _beneficiary;\n    auctionEndTime = getTime() + _biddingTime;\n    biddingTime = _biddingTime;\n  }\n\n  function getTime() internal view returns (uint256) {\n    return block.timestamp;\n  }\n  /// Bid on the auction with the value sent\n  /// together with this transaction.\n  /// The value will only be refunded if the\n  /// auction is not won.\n  function bid() public payable {\n    // The keyword payable\n    // is required for the function to\n    // be able to receive Ether.\n      // Revert the call if the bidding\n      // period is over.\n    require(getTime() <= auctionEndTime, 'Time has elapsed');\n      // If the bid is not higher, send the money back.\n    require(msg.value > highestBid, 'Bid is too low');\n    if (highestBidder != address(0x00)) {\n      // Sending back the money by simply using\n      // highestBidder.send(highestBid) is a security risk\n      // because it can be prevented by the caller by e.g.\n      // raising the call stack to 1023. It is always safer\n      // to let the recipient withdraw their money themselves.\n    pendingReturns[highestBidder] += highestBid;\n    }\n    auctionEndTime += biddingTime;\n    highestBidder = msg.sender;\n    highestBid = msg.value;\n    emit HighestBidIncreased(msg.sender, msg.value);\n  }\n  /// Withdraw a bid that was overbid.\n  function withdraw() public returns (bool) {\n    uint amount = pendingReturns[msg.sender];\n    if (amount > 0) {\n      // It is important to set this to zero because the recipient\n      // can call this function again as part of the receiving call\n      // before `send` returns.\n      pendingReturns[msg.sender] = 0;\n      // msg.sender.transfer(amount);\n      if (!msg.sender.send(amount)) {\n      //   // No need to call throw here, just reset the amount owing\n        pendingReturns[msg.sender] = amount;\n        return false;\n      }\n    }\n    return true;\n  }\n\n  /// End the auction and send the highest bid\n  /// to the beneficiary.\n  function auctionEnd() public {\n    // It is a good guideline to structure functions that interact\n    // with other contracts (i.e. they call functions or send Ether)\n    // into three phases:\n    // 1. checking conditions\n    // 2. performing actions (potentially changing conditions)\n\n    // 1. Conditions\n    require(getTime() >= auctionEndTime, 'Auction is still in progress');\n    require(!ended, \"auction End has already being called\");\n    // 2. Effects\n    ended = true;\n    emit AuctionEnded(highestBidder, highestBid);\n\n    //3. Interaction\n    beneficiary.transfer(highestBid);\n  }\n}",
  "sourcePath": "/home/min/Projects/lx/src/github.com/ilovelili/uport-connect/contracts/Auction.sol",
  "compiler": {
    "name": "solc",
    "version": "0.5.16+commit.9c3226ce.Emscripten.clang"
  },
  "schemaVersion": "3.1.0",
  "updatedAt": "2020-05-29T06:35:58.646Z",
  "networkType": "ethereum",
  "devdoc": {
    "methods": {}
  },
  "userdoc": {
    "methods": {
      "auctionEnd()": {
        "notice": "End the auction and send the highest bid to the beneficiary."
      },
      "bid()": {
        "notice": "Bid on the auction with the value sent together with this transaction. The value will only be refunded if the auction is not won."
      },
      "constructor": "Create a simple auction with `_biddingTime` seconds bidding time on behalf of the",
      "withdraw()": {
        "notice": "Withdraw a bid that was overbid."
      }
    }
  }
}